:100200000C94A4010C94CC010C94CC010C94CC0162
:100210000C94CC010C94CC010C94B21E0C94CC0127
:100220000C94CC010C94CC010C94CC010C94CC011A
:100230000C94CC010C94CC010C94D71E0C94881F08
:100240000C94CC010C94CC010C94CC010C94CC01FA
:100250000C94431E0C94CC010C94CC010C94CC0156
:100260000C94681E0C94CC010C94CC010C94CC0121
:100270000C94CC010C94F91D0C94CC010C94CC0181
:100280000C94CC010C94CC010C948D1E0C941E1E6D
:100290000C94951D0C94671D0C94411D0C94CC017D
:1002A0000000000300010200000101000000000046
:1002B000000000000000000000000000000000003E
:1002C0000000000000000000002010012040041089
:1002D00002080102010204010204081020040808B7
:1002E0002010402010408008800102040408010210
:1002F000804002020005020105000401010404041B
:1003000003030303030300000200000301010000D4
:1003100001020202020505050503050504000506A4
:1003200002040103000100010200010203040502AE
:100330000303050406050406070307000102020380
:1003400000010706B320692A11241FBECFEFCDBFDD
:10035000DFE3DEBF18E2A0E0B8E2E5EEFEE502C0B2
:1003600005900D92A231B107D9F72CE2A2E1B8E2D3
:1003700001C01D92AC3BB207E1F711E0C3EAD1E046
:1003800004C02197FE010E945E2DC23AD107C9F731
:100390000E94A1220C94A62E0C94000100008093D0
:1003A000C4088091C30887FFFCCF8091C4080895DA
:1003B0008091FC299091FB29891B990B089590E06D
:1003C000FC01E55EFC4F24912F3F09F1FC01EE504A
:1003D000FD4FA491AA0FAA0FAA0FA20FA033B8F441
:1003E000B0E0AA0FBB1FA556B64D6D937C938491C8
:1003F00030E2839FC00111249C5F4096FC01E20F14
:10040000F11D8081887F8083808181608083089551
:100410004F925F926F927F928F929F92AF92BF9214
:10042000CF92DF92EF92FF920F931F932B013C012B
:1004300049015A016701780120E030E040E751E4CA
:100440000E94EE2A87FF07C08AE090E08093532B3A
:100450009093542B0EC020E030E040E751E4C301FC
:10046000B2010E94462C1816ACF41092532B109235
:10047000542B20E030E040EF51E4C501B4010E946C
:10048000EE2A87FF0AC081E090E08093552B90937D
:10049000562B11C08AE590E0D9CF20E030E040EF44
:1004A00051E4C501B4010E94462C87FD15C010928D
:1004B000552B1092562B20E030E040EF51E4C7015D
:1004C000B6010E94EE2A87FF0AC084E690E080937E
:1004D000572B9093582B11C089E090E0D6CF20E0A5
:1004E00030E040EF51E4C701B6010E94462C87FD81
:1004F00027C01092572B1092582B8091532B90911C
:10050000542B2091552B3091562B820F931F209105
:10051000572B3091582B820F931F8093512B909320
:10052000522B1F910F91FF90EF90DF90CF90BF90D3
:10053000AF909F908F907F906F905F904F900895B5
:1005400084E893E0C4CFFC0154894589252F30E02D
:10055000842F90E0821B930B541710F0CF960895D0
:1005600001970895FC0192898389981761F0A38906
:10057000AE0FBF2FB11D59968C9193899F5F9F73CA
:10058000938B90E008958FEF9FEF0895FC0192897F
:100590008389981731F08389E80FF11D818D90E0F0
:1005A00008958FEF9FEF0895FC0192892389892F89
:1005B00090E0805C9F4F821B91098F73992708956B
:1005C000CF93DF93EC01E881F9810284F385E02D7C
:1005D0000995EC85FD8586818F738683EC85FD8585
:1005E00085818F7585838B898A8B198ADF91CF915D
:1005F0000895CF93DF93FC0194898589C485D585BF
:10060000981306C08D818F7D8D83DF91CF910895E2
:10061000A589AE0FBF2FB11DA75ABF4F2C91858959
:1006200090E001968F739927858B80E48C83A48555
:10063000B58512962C93A485B58514968C91149744
:1006400085FFFBCF948985899813DFCF15968C9110
:1006500015978F7D15968C9387898823B1F2808DAD
:1006600080931301178AD1CFEF92FF920F931F93BC
:10067000CF93DF93EC0181E0898B9C898D8998135E
:100680001CC0AC85BD8514968C91149785FF15C050
:1006900012966C93AC85BD8580E414968C93EC85A2
:1006A000FD8585818F7D858381E090E0DF91CF910D
:1006B0001F910F91FF90EF9008958091110180FF9D
:1006C00008C080911301888F8E898093130181E087
:1006D0008F8BF62E0C8910E00F5F1F4F0F731127C1
:1006E000E02E8D898E110CC00FB607FE05C0EC857B
:1006F000FD85858185FDF5CFCE010E94F902F1CF00
:10070000EC89EC0FFD2FF11DE75AFF4FF0820C8BA7
:10071000EC85FD8585818062C6CF682F8DEF99E2DB
:100720000C943403CF93DF93FC0121892223F9F049
:10073000EC018091110180FF08C080911301808F2E
:1007400086898093130181E0878BEC85FD85858107
:1007500085FD03C0848186FD0AC00FB607FE03C075
:10076000858185FDF2CFCE010E94F902EECFDF91A7
:10077000CF9108958DEF99E20E94D40221E0892B58
:1007800009F420E0822F089580E090E0892B29F081
:100790000E94BA0381110E94000080E090E0892B42
:1007A00049F080E090E0892B29F00E94000081113F
:1007B0000E94000080E090E0892B49F080E090E00A
:1007C000892B29F00E94000081110C9400000895EB
:1007D000AF92BF92CF92DF92EF92FF920F931F934F
:1007E000CF93DF936C017B018B01040F151FEB018D
:1007F0005E01AE18BF08C017D10759F06991D60144
:10080000ED91FC910190F081E02DC6010995892BB5
:1008100079F7C501DF91CF911F910F91FF90EF9074
:10082000DF90CF90BF90AF90089581E0089521E0D0
:10083000FC0184858F3F09F420E0822F08956093A6
:10084000722970937329089590E0FC01E753FD4FDE
:1008500024912F3F29F1FC01EE50FD4FA49130E28D
:10086000A39FD0011124BC5F6130710519F411966A
:100870002C930895FC01E55EFC4FE491EF3F89F075
:10088000CD014096E80FF92FF11D9FB7F89412960D
:100890002C9380816230710539F4886080839FBF1A
:1008A0000895F0E0E0E0F1CF877FF8CF893210F4CF
:1008B0000C942404089580919B2A811117C01092F2
:1008C0009C2A10929D2A10929E2A10929F2A109282
:1008D000A02A1092A12A1092A22A1092A32A109262
:1008E000A42A1092A52A81E080939B2A8091E30597
:1008F00090919A2A892B8093E30561E070E08091C2
:10090000972A0E94560461E070E08091982A0E9424
:1009100056048091C10884608093C1088091C0080A
:1009200081628093C0089091D62A8091D72A9093B3
:10093000C0088093C108089590E0FC01E056FD4F87
:10094000E491EE2321F1E13021F008F1E630B0F03E
:100950000895855E9C4FFC0184914091010A8C5F53
:1009600021E030E0B90102C0660F771F8A95E2F7F7
:10097000CB01809584238093010A089570E1E79F5D
:10098000F0011124E05AF54F81818F7E8183089513
:10099000FF920F931F93CF93DF93C82FD0E0FE01F8
:1009A000E753FD4FF4909FEFF916A9F08B018932C0
:1009B00010F40E949C04FE01EE50FD4FA49180E2D1
:1009C000A89FD0011124BC5F8C918F2169F0012B6D
:1009D00041F41696FC92DF91CF911F910F91FF90F9
:1009E00008951596FC92F7CFFE01E55EFC4FE49169
:1009F000109779F0EF3F69F05096EA0FFB2FF11D49
:100A00009FB7F8948081012B39F4877F80839FBF43
:100A1000E2CFF0E0E0E0F4CF8860F8CF893210F464
:100A20000C94C80408958F929F92AF92BF92EF9258
:100A3000FF920F931F93CF93DF93EC014A015B0169
:100A4000E22E8989882339F0E881F9810088F189CB
:100A5000E02DCE01099598898091E205892B80933C
:100A6000E205FFB6F89460910728709108288091FC
:100A7000092890910A2823E0660F771F881F991F85
:100A80002A95D1F7A50194010E94E12C2F5F3F4FD9
:100A90004F4F5F4F5695479537952795EC85FD85C8
:100AA00086818D7F8683EC85FD8586818683198A84
:100AB00080912311E82F880FFF0BDF01BC5F0E949C
:100AC0002D2D0C851D85AF01F7FF03C05195419574
:100AD000510920E034E0241B350B032E000C440B9D
:100AE000550B0E94032DF80120873187EC85FD8589
:100AF000E782EC85FD858681806C8683EC85FD85AB
:100B00008581806885838E8562E070E00E9456044E
:100B10008F8561E070E00E940E058F8561E070E0D6
:100B20000E945604FFBEDF91CF911F910F91FF905D
:100B3000EF90BF90AF909F908F9008951F93CF93A9
:100B4000DF93C82FD0E0FE01E753FD4F14911F3F04
:100B5000B9F0893210F40E949C04CE50DD4FFE01A2
:100B6000C491F0E2CF9FE0011124DC5FE885E1232E
:100B700081E090E009F480E0DF91CF911F9108952A
:100B800080E090E0F9CFEF92FF920F931F93CF9305
:100B9000DF93893208F047C0C82FD0E0FE01E55E40
:100BA000FC4FF4909FEFF91609F43DC08B01E82E3D
:100BB00061E070E00E945604101611065CF070E0CF
:100BC00060E08E2DDF91CF911F910F91FF90EF90FC
:100BD0000C940E050F3F110521F01CF061E070E050
:100BE000F0CFFE01E056FD4FE491E13039F010F016
:100BF000E63000F1003811058CF7E1CFEF2DF0E081
:100C0000DF01AA0FBB1FA85CB54F0D931C93809109
:100C1000010A349621E030E001C0220FEA95EAF79C
:100C2000822B8093010ADF91CF911F910F91FF904A
:100C3000EF90089580E1E89FF0011124E05AF54F0C
:100C40000587818180618183EECFCF93DF938FB75A
:100C5000F894209166293091672940916829509134
:100C60006929E091BA0A9091B60A90FF06C02F5FF9
:100C70003F4F4F4F5F4FE091BA0A8FBFA09170294D
:100C8000B0917129C0916E29D0916F290E94222DB7
:100C9000EC9F9001ED9F300D1124620F731F811D99
:100CA000911DDF91CF9108958F929F92AF92BF9245
:100CB000CF92DF92EF92FF924B015C010E942506DA
:100CC0006B017C01A8EEB3E0A50194010E94222DE6
:100CD000C60ED71EE81EF91EC616D706E806F90688
:100CE00018F40E942506F8CF0E9425066C157D0594
:100CF0008E059F05C8F3FF90EF90DF90CF90BF90D7
:100D0000AF909F908F9008952FB7F89460916229CB
:100D10007091632980916429909165292FBF08956E
:100D2000EF92FF920F931F93CF93DF9390E2899FEF
:100D3000E0011124DC5FE984082F000F000F000F91
:100D4000FF24F39410E08E2D8F2179F0E02FE10F36
:100D5000F0E0EE0FFF1FE556F64D80819181892B63
:100D600021F00190F081E02D09951F5FFF0C1830F4
:100D700051F7E986DF91CF911F910F91FF90EF908E
:100D800008950F9391E090935F2910925E296093EC
:100D90005C2970935D2940935B2920935A29109216
:100DA00059291092582900935729880F8093562962
:100DB00023E030E044E050E080915B29882341F05B
:100DC0002093542930935529809156298E7F0BC04A
:100DD00080915A29882351F04093542950935529E2
:100DE0008091562981608093A70808C080915B2973
:100DF000811104C080915A29882311F380915E29C2
:100E00008823E1F380915E298330B1F280915A29E1
:100E1000882321F0809158290F91089590915E299F
:100E200081E09130C9F780E0F7CFE0EAF8E0918502
:100E30009066918722E030E0209354293093552921
:100E40008093462910924529089581E08093452991
:100E50001092462993E09093AA089091AB0891FFD5
:100E600010C010925229E0914329F091442909952C
:100E70008093512985E090E08093542990935529DF
:100E80000895109253298093502986E090E0F4CF82
:100E900060934129709342290895E0914129F0918E
:100EA0004229309741F01092402910923F2909952C
:100EB00080913F29089580E00895E0917229F09192
:100EC0007329309759F03091FB292091FC29321772
:100ED00028F01092FB298093FC2909940895089525
:100EE000E091FB298091FC29E81730F4F0E0E1540F
:100EF000F74D808190E008958FEF9FEF08959091D6
:100F0000FB298091FC292FEF3FEF981748F4E92F38
:100F1000F0E0E154F74D208130E09F5F9093FB2992
:100F2000C9010895CF92DF92EF92FF920F931F9322
:100F3000CF93DF937C018A01EB016B01C40ED51EB8
:100F4000CC15DD0551F06991D701ED91FC9101902F
:100F5000F081E02DC7010995F3CFC801DF91CF9152
:100F60001F910F91FF90EF90DF90CF900895209107
:100F70003F2927FF08C021E030E0FC0122833383B2
:100F800090E080E0089580914029E82FF0E0E15C56
:100F9000F74D60838F5F8093402980933F2981E0E4
:100FA00090E00895DC01ED91FC910688F789E02D31
:100FB00061E009940F9380915429909155290197EC
:100FC000A1F480915F29811112C0062F20E0409189
:100FD0003F296FE378E280913E280E94C10610927B
:100FE000402910923F290F91089580E0F8CF81E0C9
:100FF000F6CF60933E281092402910923F29089521
:10100000CF93DF93D82FC62F8091752B882329F09B
:10101000813001F180E090E01AC06091762B88ED7C
:101020009AE20E94F9076D2F88ED9AE20E94B707B5
:101030006C2F88ED9AE20E94B70788ED9AE20E9431
:10104000D20721E090E0811101C020E0822FDF91E2
:10105000CF91089570E060E08091772B0E940E059B
:101060008D2F0E94CE018C2F0E94CE0161E070E096
:101070008091772B0E940E05CDCFDC01ED91FC9184
:10108000028CF38DE02D21E009940F938FEB98E211
:10109000809347299093482980915429909155290C
:1010A0000197C1F480915F29811116C0FA0141387E
:1010B000510510F0E0E8F0E0022F862F2E2F40E0DF
:1010C00070E060E00E94C1061092FB298093FC2929
:1010D0000F91089580E0F8CF81E0F6CFCF92DF92B4
:1010E000EF92FF920F931F93CF93DF9300D0CDB772
:1010F000DEB78091242B8823E9F1813009F46DC09B
:1011000029813A818091282B9091292B12E0853FEB
:10111000910529F06DE770E00E94CD2C162FB901E2
:10112000330F880B990B0E94962B20E030E04CE89F
:1011300050E40E944B2C6B017C01612F70E090E029
:1011400080E00E94962B9B01AC01C701B6010E9472
:101150004B2C20E030E04AE754E40E94F32A0F9041
:101160000F90DF91CF911F910F91FF90EF90DF9043
:10117000CF9008956091252B88ED9AE20E94F9079F
:1011800066E288ED9AE20E94B70788ED9AE20E9433
:10119000D20729813A81811158C021E042E050E014
:1011A0006091252B88ED9AE20E9445081091FC2958
:1011B0008091FB29811709F4A3CF88ED9AE20E9460
:1011C0007F0789838091FB29811709F499CF88EDE6
:1011D0009AE20E947F078A8393CF70E060E080915B
:1011E000262B0E940E0586EA0E94CE0180E00E9416
:1011F000CE0111E08F3F09F010E0898380E00E946A
:10120000CE018F3F09F41F5F8A831230D9F010E0BE
:1012100000E061E070E08091262B0E940E0529819C
:101220003A810115110509F46DCF0530110569F4F6
:101230008091412B9091422B01968093412B90936A
:10124000422B60CF05E010E0E4CF8091432B9091DA
:10125000442B01968093432B9093442B53CFEF92D2
:10126000FF921F93CF93DF937C01C62F8091752B44
:10127000882321F0813059F1D0E041C06091762B74
:1012800088ED9AE20E94F9076C2F88ED9AE20E949D
:10129000B70788ED9AE20E94D207D1E0C0E0811141
:1012A00001C0D0E021E041E050E06091762B88ED74
:1012B0009AE20E9445089091FC298091FB29981799
:1012C000F9F088ED9AE20E947F07182FF4CF70E0C2
:1012D00060E08091772B0E940E058C2F80680E9421
:1012E000CE0180E00E94CE01182F61E070E0809175
:1012F000772B0E940E05D5E01F3F09F0BDCFC0E05F
:10130000F70110838D2F9C2FDF91CF911F91FF90BC
:10131000EF9008958F929F92AF92BF92CF92DF92FB
:10132000EF92FF92CF93DF9340348DE0580783E034
:101330006807710508F44EC0411585E358078CE035
:101340006807710508F43FC040385F446241710589
:1013500008F040C0C8E7D0E020E432E44FE050E0BD
:101360008090072890900828A0900928B0900A281B
:10137000C501B4010E94E12C69017A018AE0C81A12
:10138000D108E108F108DE01A50194010E94222D97
:1013900020E03AEC4AE95BE30E94E12CC21AD30A4E
:1013A000E40AF50AF694E794D794C794C092A60885
:1013B000DF91CF91FF90EF90DF90CF90BF90AF90F3
:1013C0009F908F900895CCE2D1E020E83AE146E08A
:1013D00050E0C6CFC8EED3E020EA36E841E050E066
:1013E000BFCFE0EAF8E01382168281E0858314869D
:1013F0001186109254291092552908951092FB29B4
:101400001092FC291092402910923F298091542972
:1014100090915529892BD9F482E090E0809354294A
:1014200090935529109253291092522910924529D0
:101430001092462910923D2810925029660F609311
:10144000AC0881EE8093A90881E08093A3088DE425
:1014500097E080934329909344298FE398E2809307
:10146000492990934A298DE597E080934E299093DE
:101470004F298FEB98E280934B2990934C2980E879
:1014800080934D2908958F929F92AF92BF92CF92F1
:10149000DF92EF92FF921092FB291092FC2910929A
:1014A000402910923F298091542990915529892BE8
:1014B00009F045C08091E3058093E30581E090E069
:1014C00080935429909355291092582910925929A4
:1014D00010925F2910925E2981EC8093A30880907E
:1014E000072890900828A0900928B0900A28C501E4
:1014F000B40120EA36E841E050E00E94E12C6901A5
:101500007A018AE0C81AD108E108F108A8EEB3E030
:10151000A50194010E94222D20E03AEC4AE95BE308
:101520000E94E12CC21AD30AE40AF50AF694E79461
:10153000D794C794C092A60881E08093A508FF9035
:10154000EF90DF90CF90BF90AF909F908F900895D5
:1015500080910428893220F40E949E05892BC1F7CE
:101560000895CF93DF931F92CDB7DEB7898389812A
:101570000F90DF91CF910C94CE01CF93DF93D82FB2
:10158000C62F80EE0E94B10A8D2F0E94B10A8C2FC7
:101590000E94B10AC11105C08EEEDF91CF910C946B
:1015A000B10ADF91CF910895DF92EF92FF920F93EE
:1015B0001F93CF93DF93D82EE92E8B01F42E812F2A
:1015C0000E94B10A802F0E94B10ACD2DDE2D0C0F92
:1015D0001D1FC017D10721F089910E94B10AF9CFD0
:1015E00081E0F8120AC08EEEDF91CF911F910F912A
:1015F000FF90EF90DF900C94B10ADF91CF911F9193
:101600000F91FF90EF90DF900895DF92EF92FF929D
:101610000F931F93CF93DF937C01C62FD42E862F79
:101620000E94B10A8701D0E0C8018E199F098C176A
:101630009D0734F4F80181918F010E94B10AF4CF23
:10164000F1E0DF120AC08EEEDF91CF911F910F9172
:10165000FF90EF90DF900C94B10ADF91CF911F9132
:101660000F91FF90EF90DF900895CF93DF93EC01FF
:101670008FEF0E94B10A8883DF91CF910895CF93B5
:10168000DF931F92CDB7DEB71982CE0101960E947B
:10169000350B89810F90DF91CF910895CF93DF9320
:1016A000C9EED3E00E943F0B8F3E69F0219711F005
:1016B000803EC1F721E090E0803E09F020E0822FDB
:1016C000DF91CF9108958FEF9FEFFACFCF92DF9206
:1016D000EF92FF920F931F93CF93DF931F92CDB79B
:1016E000DEB7182F6B017A0119820E944E0B892BED
:1016F00061F490E080E00F90DF91CF911F910F9106
:10170000FF90EF90DF90CF900895CE0101960E9458
:10171000350B106889811813ECCFCE0101960E9419
:10172000350B8981813029F78FEF0E94B10AF701CB
:10173000808310E000E0F70180818017110649F0F6
:1017400044F0C601800F911F0E94350B0F5F1F4FA1
:10175000F2CFCE0101960E94350B81E090E0CBCF15
:101760008F929F92AF92BF92CF92DF92EF92FF92B1
:101770000F93CF93DF9361E070E0809103280E9484
:101780000E0580919C2A882319F081FF0DC0789462
:10179000DF91CF910F91FF90EF90DF90CF90BF90AE
:1017A000AF909F908F90089580FFF2CF80909E2AF7
:1017B00090909F2AA090A02AB090A12AC12CD12C51
:1017C0007601E0E09401A501B601C701A0E00E9406
:1017D000522D91F1217030E040E050E060E070E087
:1017E00080E090E00E94522DD1F0B0E0A0E0E03324
:1017F00070F4AE2FA695A695A69580E2A89FD0017D
:101800001124A05FBB4F8E2F8770A80FB11DCE2F64
:10181000D0E0CA56D54D88899C91892B8C93940130
:10182000A501B601C70101E00E94372D49015A0107
:101830006B017C01EF5FC6CF8090A22A9090A32A13
:10184000A090A42AB090A52AC12CD12C7601E0E268
:101850009401A501B601C701A0E00E94522D09F430
:1018600097CF217030E040E050E060E070E080E031
:1018700090E00E94522DD1F0B0E0A0E0E03370F48F
:10188000AE2FA695A695A69580E2A89FD00111241B
:10189000A05FBB4F8E2F8770A80FB11DCE2FD0E059
:1018A000CA56D54D88899C91892B8C939401A501AA
:1018B000B601C70101E00E94372D49015A016B01B1
:1018C0007C01EF5FC5CFCF9383E28093032884E24E
:1018D00080930428C1E0C0933C288DE180930228C6
:1018E0000E945B0461E070E083E20E94560470E0B5
:1018F00060E084E20E94560461E070E08DE10E94A5
:10190000560461E070E08CE10E94240461E070E024
:101910008CE10E94C80461E070E083E20E940E0541
:1019200061E070E08DE10E940E056AE070E080E009
:1019300090E00E94540670E060E08DE10E940E0588
:101940006EEE72E080E090E00E94540670E060E08D
:101950008CE10E94C80470E060E08CE10E942404E5
:10196000C0939A29CF910895CF93DF931F92CDB75B
:10197000DEB76983DC01ED91FC910280F381E02DFB
:1019800041E050E0BE016F5F7F4F09950F90DF91FE
:10199000CF910895CF93DF931F92CDB7DEB76983C0
:1019A000DC01ED91FC910280F381E02D41E050E0FB
:1019B000BE016F5F7F4F09950F90DF91CF91089522
:1019C0009091FC298091FB29981749F088ED9AE2C3
:1019D0000E947F078093052890930628F1CF0895F1
:1019E0008091342881110AC083E00E949E05809373
:1019F00032289093332881E08093342880913128D5
:101A000081112DC08091322890913328019739F5AA
:101A10008091292881110AC087E00E949E05809349
:101A200027289093282881E080932928209127282F
:101A30003091282880910128232B11F481110DC0A9
:101A400020912728309128282130310541F4811137
:101A500006C081E08093012802C010920128809185
:101A60003228909133288093312880910128811168
:101A70001BC080917A2990917B29019680937A29C5
:101A800090937B2980917A2990917B29813197428B
:101A90008CF080917A2990917B2980519742809394
:101AA0007A2990937B29089580917A2990917B29B6
:101AB0000197E4CF80917A2990917B29803F984DBE
:101AC00094F780917A2990917B29805F984DE7CF98
:101AD00080911F2881110AC082E00E949E05809398
:101AE0001D2890931E2881E080931F2880911C2838
:101AF00081112DC080911D2890911E28019739F5E4
:101B00008091142881110AC084E00E949E05809370
:101B100012289093132881E0809314282091122892
:101B20003091132880910028232B11F481110DC0CE
:101B300020911228309113282130310541F4811170
:101B400006C081E08093002802C010920028809196
:101B50001D2890911E2880931C28809100288111B7
:101B60001BC080917E2990917F29019680937E29C8
:101B700090937F2980917E2990917F29813197428E
:101B80008CF080917E2990917F298051974280939B
:101B90007E2990937F29089580917E2990917F29B5
:101BA0000197E4CF80917E2990917F29803F984DC5
:101BB00094F780917E2990917F29805F984DE7CF9F
:101BC000DC01ED91FC910684F785E02D23E030E007
:101BD0000994CF93DF93EC0182E00E94B10A8D2F2C
:101BE0000E94B10A8C2FDF91CF910C94B10A8F9291
:101BF0009F92AF92BF92CF92DF92EF92FF920F939C
:101C0000CF93DF93409107285091082860910928CD
:101C100070910A28769567955795479580E04130F1
:101C200092E159079AE76907710540F07695679543
:101C3000579547958F5F863091F787E0F82FF162CF
:101C40008095282F217030E084E0220F331F8A9581
:101C5000E1F7F22B80919C2A882319F081FF2CC098
:101C6000F894F093C00884E08093C10870E060E0CD
:101C7000809103280E940E050E9484066B017C015E
:101C800080910428893208F4A8C00E9484066C1947
:101C90007D098E099F09653071058105910580F3E5
:101CA000DF91CF910F91FF90EF90DF90CF90BF9099
:101CB000AF909F908F90089580FFD3CF80909E2A01
:101CC00090909F2AA090A02AB090A12AC12CD12C3C
:101CD0007601E0E09401A501B601C701A0E00E94F1
:101CE000522D99F1217030E040E050E060E070E06A
:101CF00080E090E00E94522DD9F0B0E0A0E0E03307
:101D000070F4AE2FA695A695A69580E2A89FD00167
:101D10001124A05FBB4F8E2F8770A80FB11DCE2F4F
:101D2000D0E08C91CA56D54D888B8C91887F8C934E
:101D30009401A501B601C70101E00E94372D4901B8
:101D40005A016B017C01EF5FC5CF8090A22A909071
:101D5000A32AA090A42AB090A52AC12CD12C760148
:101D6000E0E29401A501B601C701A0E00E94522D56
:101D700009F477CF217030E040E050E060E070E09F
:101D800080E090E00E94522DD9F0B0E0A0E0E03376
:101D900070F4AE2FA695A695A69590E2A99FD001C6
:101DA0001124A05FBB4F8E2F8770A80FB11DCE2FBF
:101DB000D0E08C91CA56D54D888B8C91887F8C93BE
:101DC0009401A501B601C70101E00E94372D490128
:101DD0005A016B017C01EF5FC4CF0E949E05019701
:101DE00009F45ECF52CF5F926F927F928F929F9253
:101DF000AF92BF92CF92DF92EF92FF920F931F9319
:101E0000CF93DF93CDB7DEB72897CDBFDEBF8887EE
:101E100019821A821B821C826A837B834D835E83B4
:101E200080919A29811102C00E94630C0E94A80A25
:101E30000E94F70D61E08AE30E94BD0A41E061E083
:101E4000CE0108960E94050B0E943F0B0E943F0B9B
:101E50000E94B00B0E94A80A0E94F70D1F820E94E8
:101E60004E0B892BE9F1CE0107960E94350B8F812D
:101E70008A3BB1F50E943F0B582E882389F18E01D1
:101E80000F5F1F4FB12CA12C682E712CA614B70424
:101E900004F58FEF0E94B10AF8018083F12CE12C48
:101EA000C82ED12CEC14FD0474F4F80181809280CA
:101EB0008E0C9F1C8FEF0E94B10AF4018083FFEF0C
:101EC000EF1AFF0AEFCF8FEFA81AB80A0D5F1F4F66
:101ED000DDCFE2E05E1204C0CE0107960E94350B12
:101EE0000E94B00B2896CDBFDEBFDF91CF911F912E
:101EF0000F91FF90EF90DF90CF90BF90AF909F90A9
:101F00008F907F906F905F900895CF93DF93CDB7C0
:101F1000DEB72697CDBFDEBF19821A821B821C82D4
:101F20001D821E82AE014B5F5F4FBE016F5F7F4F10
:101F3000FC0184850E94F30E8D8190E0982F882704
:101F40002E81820F911D2696CDBFDEBFDF91CF91EE
:101F50000895CF93DF9300D0CDB7DEB780919A2953
:101F6000811102C00E94630C0E94A80A0E94F70D12
:101F700060E08FE30E94BD0A0E94B00B0E94A80A95
:101F80000E94F70D8FEF89831A82AE014E5F5F4F7B
:101F9000BE016F5F7F4F8FE30E94660B0E94B00B04
:101FA00089810F900F90DF91CF9108950F931F9328
:101FB000CF93DF9300D01F92CDB7DEB78B8319820A
:101FC0001A8210E000E080919A29811102C00E94DB
:101FD000630C0E94A80A0E94F70D61E08AE20E9449
:101FE000BD0A41E061E0CE0103960E94050B0E940C
:101FF0003F0B0E943F0B0E94B00B0E94A80A0E9458
:10200000F70DAE014E5F5F4FBE016F5F7F4F8AE2FB
:102010000E94660B0E94B00B898181111BC00F5F6B
:102020001F4F64E670E080E090E00E9454068981D2
:10203000811103C00837110530F281E0083711051E
:1020400009F480E02396CDBFDEBFDF91CF911F91D1
:102050000F91089510E000E0EACFCF92DF92EF9267
:10206000FF920F931F93CF93DF9300D000D0CDB793
:10207000DEB78C837B018A0180919A29811102C08D
:102080000E94630C0E94A80A0E94F70D62E084E49B
:102090000E94BD0A40E061E070E0CE0104960E941B
:1020A000D40A41E0B801C7010E94D40A075F1F4F5C
:1020B000C80183709927892B29F00E943F0B0F5F7D
:1020C0001F4FF6CF0E94B00B0E94A80A0E94F70D86
:1020D00019821A821B820E944E0B892B31F1CE018C
:1020E00003960E94350B8B81843CF9F40E943F0BD0
:1020F0008823B9F08FEF0E94B10A9E012F5F3F4FF6
:1021000069018901E82EF12CC8018C199D098E15F1
:102110009F053CF48FEF0E94B10AF80181938F0173
:10212000F3CFCE0103960E94350B0E94B00B89813C
:102130009A812496CDBFDEBFDF91CF911F910F9181
:10214000FF90EF90DF90CF9008950F931F93CF9360
:10215000DF938C014115510569F481E090E0F801AD
:1021600082839383D0E0C0E0CE01DF91CF911F91B5
:102170000F910895FC0184810E942D10EC01892BA0
:1021800061F3F80184810E94D60F882331F3ECCFEC
:102190000F931F93CF93DF938C01FC0184858F3FB6
:1021A00069F481E090E0F80182839383D0E0C0E09D
:1021B000CE01DF91CF911F910F91089541155105E7
:1021C00081F30E942D10EC01892B59F3F8018485CD
:1021D0000E94D60F882329F3EBCFCF93DF9300D053
:1021E0001F92CDB7DEB78B8380919A29811102C0EF
:1021F0000E94630C0E94A80A0E94F70D61E08FE222
:102200000E94BD0A41E061E0CE0103960E94050BE9
:102210000E943F0B0E943F0B0E94B00B0E94A80A35
:102220000E94F70D19821A82AE014E5F5F4FBE0108
:102230006F5F7F4F8FE20E94660B0E94B00B898117
:102240002396CDBFDEBFDF91CF910895EF92FF922D
:102250000F93CF93DF93CDB7DEB72897CDBFDEBF07
:102260006B837C838D839E837A012F830887809183
:102270009A29811102C00E94630C0E94A80A0E9440
:10228000F70D64E08DE20E94BD0A40E064E0CE01FB
:1022900003960E94050BC7010E94E90D40E061E032
:1022A000CE0107960E94050B41E061E0CE01089641
:1022B0000E94050B0E94B00B0E94A80A0E94F70D15
:1022C00019821A82AE014E5F5F4FBE016F5F7F4F72
:1022D0008DE20E94660B0E94B00B2896CDBFDEBF38
:1022E000DF91CF910F91FF90EF9008950F931F937F
:1022F000CF93DF9300D000D0CDB7DEB78C010E9422
:10230000A90FF80184838F3FB1F1068117818C8377
:10231000198280919A29811102C00E94630C0E9447
:10232000A80A0E94F70D63E088E20E94BD0AC80176
:102330000E94E90D40E061E0CE0104960E94050B89
:1023400041E061E0CE0101960E94050B0E943F0B27
:102350000E94B00B0E94A80A0E94F70D1B821A82ED
:10236000AE014E5F5F4FBE016D5F7F4F88E20E94FE
:10237000660B0E94B00B2496CDBFDEBFDF91CF91DC
:102380001F910F910895CF92DF92EF92FF920F93DA
:102390001F93CF93DF9300D000D0CDB7DEB77C0181
:1023A00086E08E9D80018F9D100D11240C51154DDE
:1023B000F80184819581892B09F084C08081918105
:1023C000892B59F480E892E00E94732DF8018283F2
:1023D0009383808391831482158280E892E08983BD
:1023E0009A8386E08E9DF0018F9DF00D1124EC51B3
:1023F000F54DC080D180EC8280919A29811102C074
:102400000E94630C0E94A80A0E94F70D62E085E416
:102410000E94BD0A40E061E070E0CE0104960E9497
:10242000D40A41E062E070E0CE0101960E94D40A35
:102430000E943F0B0E94B00B0E94A80A0E94F70D59
:102440001B820E944E0B892B49F1CE0103960E94FC
:10245000350B8B81853C11F50E943F0B8823D1F011
:102460008FEF0E94B10A182F8FEF0E94B10A912FAF
:1024700089839A83860129813A81C8018C199D0933
:102480008217930738F48FEF0E94B10AF801819305
:102490008F01F1CFCE0103960E94350B0E94B00B45
:1024A00089819A81009771F026E02E9DF0012F9D81
:1024B000F00D1124EC51F54D2081318122833383BD
:1024C0008483958386E08E9DF0018F9DF00D11240D
:1024D000EC51F54D848195812496CDBFDEBFDF910F
:1024E000CF911F910F91FF90EF90DF90CF900895C3
:1024F000CF93DF93FC01C485D0E0CE010E94C311CD
:10250000892B81F086E08C9FF0018D9FF00D1124C6
:10251000EC51F54D0280F381E02D808190E0DF9158
:10252000CF9108958FEF9FEFFACFFC0184858F3F05
:1025300019F090E00C94C31190E080E00895CF92E0
:10254000DF92EF92FF920F931F93CF93DF937C0163
:102550006B018A010E94C3110097F9F0801791075F
:102560000CF48C0186E08E9DE0018F9DD00D11242E
:10257000CC51D54D6A817B81A801C6010E949D2E58
:102580008A819B81800F911F8A839B838C819D818F
:10259000801B910B8C839D83C801DF91CF911F918C
:1025A0000F91FF90EF90DF90CF900895FC0184850C
:1025B00090E00C949F120F931F93CF93DF931F9281
:1025C000CDB7DEB78C01DC01ED91FC910480F58183
:1025D000E02D0995892B91F0F801848541E050E0C8
:1025E000BE016F5F7F4F90E00E949F12898190E053
:1025F0000F90DF91CF911F910F9108958FEF9FEF73
:10260000F7CF0F931F93CF93DF93CDB7DEB7269706
:10261000CDBFDEBF8C01FB0119821A821B821C8296
:102620001D821E82AE014B5F5F4FBE016F5F7F4F09
:1026300084850E94F30E8EE89DE9F80180839183E2
:1026400089819A81AB81BC8182839383A483B58382
:10265000C8012696CDBFDEBFDF91CF911F910F91AC
:102660000895FB0101900020E9F73197AF01461B67
:10267000570BDC01ED91FC910280F381E02D099470
:102680008F929F92AF92BF92EF92FF920F931F9300
:10269000CF93DF93CDB7DEB7A197CDBFDEBF7C016F
:1026A000FA01CB0119A2223008F42AE08E010F5D55
:1026B0001F4F822E912CB12CA12CBF01A50194019A
:1026C0000E94E12CF901CA016A30F4F4605DD8017E
:1026D0006E938D01232B242B252B79F790E080E03E
:1026E000109721F0BD01C7010E943113A196CDBF03
:1026F000DEBFDF91CF911F910F91FF90EF90BF90C0
:10270000AF909F908F900895695CE1CFCF92DF9258
:10271000EF92FF920F931F93CF93DF93EC016A0127
:102720007B01E881F9810190F081E02D6DE209954E
:102730008C0144275527BA014C195D096E097F09A0
:102740002AE0CE010E944013800F911FDF91CF91AC
:102750001F910F91FF90EF90DF90CF900895AB0104
:10276000770F660B770B77FD0C9486132AE00C9499
:1027700040138F929F92AF92BF92CF92DF92EF92CF
:10278000FF920F931F93CF93DF937C01EB016C01BA
:1027900082E0C80ED11C4701E5E08E0E911C10E0CE
:1027A00000E0F60141916F0150E070E060E02AE046
:1027B000CE010E9440135C01E881F9810190F08113
:1027C000E02D6EE2CE0109958A0D9B1D080F191FA1
:1027D000C814D90431F7F701458150E070E060E09A
:1027E0002AE0CE010E944013800F911FDF91CF910C
:1027F0001F910F91FF90EF90DF90CF90BF90AF901F
:102800009F908F9008954F925F926F927F928F92D8
:102810009F92AF92BF92CF92DF92EF92FF926B01A5
:102820007C01AC019B010E94B82C6AED7DE981110D
:1028300026C046015701E894B7F82FEF3FEF4FE766
:102840005FE7C501B4010E94B82C81110CC02FEFC5
:102850003FEF4FE75FE7C501B4010E94EE2A6EED3E
:102860007DE9181664F02FEF3FEF4FE75FE4C701F3
:10287000B6010E94462C181694F462EE7DE98DEFA5
:1028800099E2FF90EF90DF90CF90BF90AF909F9034
:102890008F907F906F905F904F900C9431132FEF3B
:1028A0003FEF4FE75FECC701B6010E94EE2A87FDBC
:1028B000E4CF20E030E0A901C701B6010E94EE2A72
:1028C000B12CA12C87FF0AC06DE28DEF99E20E9426
:1028D00034035C01F7FAF094F7F8F0942AE037ED4E
:1028E00043EA5BE3C701B6010E94822A2B013C0147
:1028F0000E94652B6B017C010E94942B9B01AC0113
:10290000C301B2010E94812A2B013C012AE0B701D8
:10291000A6018DEF99E20E9440137C01EA0CFB1C9A
:1029200066EE7DE98DEF99E20E943113E80EF91E03
:1029300020E030E040E251E4C301B2010E944B2CA0
:102940002B013C010E94652B4B01B12CA12C2AE0EC
:10295000B501A4018DEF99E20E944013E80EF91E23
:10296000C501B4010E94942B9B01AC01C301B201CB
:102970000E94812A20E030E040E251E40E944B2C8A
:102980000E94652BAB0170E060E02AE08DEF99E2D8
:102990000E9440138E0D9F1DFF90EF90DF90CF900F
:1029A000BF90AF909F908F907F906F905F904F906F
:1029B000089568EE7DE90C943113CF93DF93BC0149
:1029C0008DEF99E20E94AF13EC018DEF99E20E9426
:1029D000D9148C0F9D1FDF91CF9108950F931F93F2
:1029E000CF93DF93EC010E9431138C01CE010E9442
:1029F000D914800F911FDF91CF911F910F910895EE
:102A0000CF93DF93C9E5DBE270E060E08E890E943E
:102A10000E0570E060E08C890E940E0570E060E0B9
:102A2000888D0E940E0570E060E08A8D0E940E0580
:102A30006BEE7DE98DEF99E2DF91CF910C94EE146E
:102A4000EF92FF920F931F93CF93DF937C018B0143
:102A5000C9E5DBE261E070E08C890E940E0570E060
:102A600060E08E890E940E0561E070E08A8D0E9410
:102A70000E0570E060E0888D0E940E05B701888920
:102A80000E94C305B8018A890E94C30560EF7DE9F1
:102A90008DEF99E2DF91CF911F910F91FF90EF9011
:102AA0000C94EE14EF92FF920F931F93CF93DF934A
:102AB0007C018B01C9E5DBE261E070E08E890E9458
:102AC0000E0570E060E08C890E940E0561E070E008
:102AD000888D0E940E0570E060E08A8D0E940E05D0
:102AE000B70188890E94C305B8018A890E94C3057D
:102AF00068EF7DE98DEF99E2DF91CF911F910F9102
:102B0000FF90EF900C94EE14AF92BF92CF92DF92B1
:102B1000EF92FF920F93CF93DF93EC017B015A0169
:102B20008C858F3F39F0E881F9810288F389E02DA7
:102B3000CE0109950E94A90F282F8C878F3F09F499
:102B40003FC0F701628173818481958102E0A50114
:102B50000E9426110E9484066B017C01E881F981A4
:102B60000488F589E02DCE010995811112C00E94DB
:102B700084066C197D098E099F09603177428105B1
:102B8000910538F461E070E080E090E00E94540626
:102B9000E5CFE881F9810488F589E02DCE0109951A
:102BA00021E090E0811101C020E0822FDF91CF91E0
:102BB0000F91FF90EF90DF90CF90BF90AF9008956E
:102BC00061E07EE98DEF99E20E94EE1480E090E0F2
:102BD000EDCFAF92BF92CF92DF92EF92FF920F9321
:102BE000CF93DF93EC017B015A018C858F3F39F045
:102BF000E881F9810288F389E02DCE0109950E94D0
:102C0000A90F282F8C878F3F09F43FC0F7016281FD
:102C100073818481958100E0A5010E9426110E94A4
:102C200084066B017C01E881F9810488F589E02D37
:102C3000CE010995811112C00E9484066C197D098C
:102C40008E099F09603177428105910538F461E072
:102C500070E080E090E00E945406E5CFE881F981C1
:102C60000488F589E02DCE01099521E090E08111DD
:102C700001C020E0822FDF91CF910F91FF90EF9064
:102C8000DF90CF90BF90AF90089561E07EE98DEF27
:102C900099E20E94EE1480E090E0EDCF0C943113A5
:102CA0008F929F92AF92BF92EF92FF920F931F93DA
:102CB000CF93DF93CDB7DEB72897CDBFDEBF7C01C2
:102CC0005B014A01DC011C968C911C978F3F39F007
:102CD000ED91FC910288F389E02DC70109950E94CE
:102CE000A90FF70184878F3F09F493C0F501019084
:102CF0000020E9F731978F010A191B09888782E0C4
:102D00008D8319821A821B821C8280919A298111DB
:102D100002C00E94630C0E94A80A0E94F70D65E0A1
:102D20008DE20E94BD0A40E0602FC5010E94050BA4
:102D300040E064E0CE0101960E94050BC4010E94B0
:102D4000E90D40E061E0CE0108960E94050B41E0EC
:102D500061E0CE0105960E94050B11270F5E1F4F03
:102D6000C80183709927892B29F00E943F0B0F5FC0
:102D70001F4FF6CF0E94B00B0E94A80A0E94F70DC9
:102D80001F821E82AE014A5F5F4FBE01695F7F4FA7
:102D90008DE20E94660B0E94B00B0E9484064B01DC
:102DA0005C01D701ED91FC910488F589E02DC70104
:102DB0000995811112C00E948406681979098A094F
:102DC0009B09603177428105910538F461E070E03C
:102DD00080E090E00E945406E4CFD701ED91FC9191
:102DE0000488F589E02DC701099521E090E0811163
:102DF00001C020E0822F2896CDBFDEBFDF91CF91AA
:102E00001F910F91FF90EF90BF90AF909F908F9088
:102E1000089561E07EE98DEF99E20E94EE1480E072
:102E200090E0E9CF8F929F92AF92BF92CF92DF92C4
:102E3000EF92FF920F931F93CF93DF93CDB7DEB73F
:102E40002B97CDBFDEBF7C015B016A0180919A297F
:102E5000811102C00E94630C0E94A80A0E94F70D13
:102E600061E084E30E94BD0AF50101900020E9F7CA
:102E70003197BF016A197B0941E0C5010E94050B2A
:102E8000D5010D900020E9F78D010A191B090C5F8F
:102E90001F4FC80183709927892B29F00E943F0B8F
:102EA0000F5F1F4FF6CF0E94B00B0E94A80A0E942E
:102EB000F70D1F821982AE014F5F5F4FBE01695F40
:102EC0007F4F84E30E94660B182F0E94B00B1123E2
:102ED00019F08F81813019F090E080E054C08FEFBD
:102EE0008B838C838D838E8380919A29811102C07C
:102EF0000E94630C0E94A80A0E94F70D60E085E31F
:102F00000E94BD0A0E94B00B0E94A80A0E94F70D01
:102F10001B86AE01455F5F4FBE01695F7F4F85E352
:102F20000E94660B8C01812C912C5401892B91F00D
:102F30008F809884A984BA8491E080E04B815C8181
:102F40006D817E81481559056A057B0509F490E07D
:102F5000092F182F0E94B00B012B09F4BDCFD70108
:102F6000ED91FC910484F585E02D8EE89DE989833F
:102F70009A838B829C82AD82BE82A601BE016F5F66
:102F80007F4FC70109952B96CDBFDEBFDF91CF9153
:102F90001F910F91FF90EF90DF90CF90BF90AF9077
:102FA0009F908F9008950E94982E0F931F93CF9318
:102FB000DF93FC0124852F3F09F1EC010190F081A2
:102FC000E02D0480F581E02D0995892B31F081E019
:102FD000DF91CF911F910F9108958C858F3F81F4E0
:102FE0000C85F6E00F9F800111240C51154DF8015E
:102FF00080819181009779F48FEF8C8780E0E8CF12
:103000000E94ED10843060F39BEF980F933040F3F3
:103010008A30E9F6E5CF0E940F2EF8011282138262
:103020001082118214821582E7CF0F931F93CF93E2
:10303000DF93CDB7DEB76197CDBFDEBF8C01809146
:10304000492B8F3F09F47FC080914A2B8F3F09F1B4
:103050001B821C8248EE53E060E070E04D835E838B
:103060006F8378872AE63DE929833A838D87CE01ED
:1030700001960E94D517882361F0CE0101960E9427
:103080009512892B31F080914A2B90E08F3F91056A
:10309000C9F58091492B898B8CE10E949E052FEF09
:1030A000892B69F180919A29811102C00E94630CD9
:1030B0000E94A80A0E94F70D61E08BE20E94BD0AFF
:1030C00041E061E0CE0141960E94050B0E943F0B5A
:1030D0000E943F0B0E94B00B0E94A80A0E94F70DAD
:1030E000188A19821A82AE01405F5F4FBE016F5F7E
:1030F0007F4F8BE20E94660B0E94B00B2981822FCA
:103100002F3F09F180934A2BF8011282138248EE77
:1031100053E060E070E044835583668377831086D4
:103120001186128613862AE63DE92083318384873F
:1031300015861686C8016196CDBFDEBFDF91CF919F
:103140001F910F910895F8011282138288EE93E087
:10315000A0E0B0E084839583A683B7838AE69DE9E7
:10316000808391838FEF8487E5CFCF93DF93CDB7B3
:10317000DEB72F97CDBFDEBFCE0101960E94151896
:103180008D858F3F61F1CE0101960E94D51788236E
:1031900031F1CE0101960E949512892BA1F3CE0147
:1031A00001960E94DB126091802970918129CE01E5
:1031B00001960E94AF1365E17EE9CE0101960E945F
:1031C0004E166091052870910628CE0101960E9446
:1031D000AF1367E17EE9CE0101960E94EE142F96AF
:1031E000CDBFDEBFDF91CF9108954F925F926F9276
:1031F0007F928F929F92AF92BF92CF92DF92EF9287
:10320000FF920E9400156CE271E080E090E00E9465
:10321000540669E17EE98DEF99E20E94EE140E9466
:1032200084064B015C010E946E082FE832EC45E7F2
:103230005CE30E944B2C6B017C012DEC3CEC4CECD4
:103240005DE30E94EE2A87FF0DC02DEC3CEC4CECB8
:103250005DEBC701B6010E94462C18161CF4C12C68
:10326000D12C760120E030E0A901C701B6010E940F
:10327000822A6B017C016AE070E080E090E00E94AD
:1032800054060E9484062B013C0120E030E042EA13
:1032900052E4C701B6010E94EE2A87FF91C020E0E8
:1032A00030E0A901C701B6010E94462C87FD88C005
:1032B000C301B201681979098A099B090E94942BFC
:1032C00020E034E244E759E40E94F32A4B015C0118
:1032D0000E9425062B013C0170E060E080916D2B7F
:1032E0000E940E0561E070E080916F2B0E940E0538
:1032F00070E060E08091732B0E940E0570E060E04A
:103300008091712B0E940E056EE670E08091692B12
:103310000E94C3056EE670E080916B2B0E94C3058E
:103320000E946E089B01AC01C501B4010E944B2CA8
:103330004B015C012DEC3CEC4CEC5DE30E94EE2A71
:1033400087FF0DC02DEC3CEC4CEC5DEBC501B401EE
:103350000E94462C18161CF4812C912C5401A501B6
:103360009401C701B6010E94822A6B017C016AE0C8
:1033700070E080E090E00E9454060E9425066419E7
:103380007509860997090E94942B20E034E244E7EE
:1033900059E40E94F32A4B015C0120E030E042EA4C
:1033A00052E4C701B6010E94EE2A87FF09C020E05F
:1033B00030E0A901C701B6010E94462C87FF88CFE3
:1033C00020E030E042EA52E4C701B6010E94462CF8
:1033D0001816C4F470E060E080916D2B0E940E0519
:1033E00070E060E08091732B0E940E0570E060E059
:1033F0008091712B0E940E0570E060E080916F2B30
:103400000E940E0580917429909175298130910553
:1034100089F583E090E080937429909375298091D9
:1034200074299091752980938029909381290E9415
:10343000DD140E94B5188FEF90E00E948D038091FB
:1034400080299091812999270E948D030E9400155F
:103450006CE271E080E090E0FF90EF90DF90CF9021
:10346000BF90AF909F908F907F906F905F904F90A4
:103470000C9454068230910519F481E090E0CBCF92
:103480008330910519F484E090E0C5CF049739F6B4
:1034900082E090E0C0CF6CE271E080E090E00E94BA
:1034A00054060E94F51864E670E08FE590E00E94F3
:1034B000201568EB7BE080E090E00E9454060C94BD
:1034C000F5184F925F926F927F928F929F92AF9278
:1034D000BF92CF92DF92EF92FF920E9400156CE2B2
:1034E00071E080E090E00E9454066EE17EE98DEF8D
:1034F00099E20E94EE140E9425064B015C010E9495
:103500006E082FE832EC45E75CE30E944B2C6B0120
:103510007C012DEC3CEC4CEC5DE30E94EE2A87FF35
:103520000DC02DEC3CEC4CEC5DEBC701B6010E94EC
:10353000462C18161CF4C12CD12C760120E030E06A
:10354000A901C701B6010E94822A6B017C016AE0D1
:1035500070E080E090E00E9454060E9425062B0156
:103560003C0120E030E044EA52ECC701B6010E9481
:10357000462C18160CF095C020E030E040E85FE3E0
:10358000C701B6010E94EE2A18160CF48AC0C301C6
:10359000B201681979098A099B090E94942B20E0DD
:1035A00034E244E759E40E94F32A4B015C0170E0E5
:1035B00060E080916D2B0E940E0570E060E08091CC
:1035C0006F2B0E940E0570E060E08091732B0E94CB
:1035D0000E0561E070E08091712B0E940E056EE691
:1035E00070E08091692B0E94C3056EE670E08091C7
:1035F0006B2B0E94C3050E9425062B013C010E94F3
:103600006E089B01AC01C501B4010E944B2C4B011B
:103610005C012DEC3CEC4CEC5DE30E94EE2A87FF54
:103620000DC02DEC3CEC4CEC5DEBC501B4010E94EF
:10363000462C18161CF4812C912C5401A5019401E0
:10364000C701B6010E94822A6B017C016AE070E02A
:1036500080E090E00E9454060E94250664197509D6
:10366000860997090E94942B20E034E244E759E44C
:103670000E94F32A4B015C0120E030E044EA52EC66
:10368000C701B6010E94462C18165CF420E030E019
:1036900040E85FE3C701B6010E94EE2A18160CF05D
:1036A00086CF20E030E044EA52ECC701B6010E9428
:1036B000EE2A87FF18C070E060E080916D2B0E94B9
:1036C0000E0570E060E08091732B0E940E0570E0A3
:1036D00060E08091712B0E940E0570E060E08091A7
:1036E0006F2B0E940E05809174299091752981306D
:1036F000910579F582E090E0809374299093752983
:1037000080917429909175298093802990938129C3
:103710000E94B5188FEF90E00E948D038091802960
:103720009091812999270E948D030E9400156CE2D7
:1037300071E080E090E0FF90EF90DF90CF90BF903D
:10374000AF909F908F907F906F905F904F900C9470
:1037500054068230910519F484E090E0CDCF833097
:10376000910519F481E090E0C7CF049749F683E012
:1037700090E0C2CF6CE271E080E090E00E945406DD
:103780000E94611A64E670E08FE590E00E942015C7
:1037900068EB7BE080E090E00E9454060C94611A94
:1037A000EF92FF920F931F93CF93DF9300D01F925E
:1037B000CDB7DEB7FC0194859F3F09F45AC07F0165
:1037C0009B8380919A29811102C00E94630C0E9400
:1037D000A80A0E94F70D61E08EE20E94BD0A41E056
:1037E00061E0CE0103960E94050B0E943F0B0E94F0
:1037F0003F0B0E94B00B0E94A80A0E94F70D1A828C
:103800001982AE014F5F5F4FBE016E5F7F4F8EE248
:103810000E94660B0E94B00B02E310E0F701848562
:103820008F3F71F00E94ED10882351F00150110973
:1038300039F064E670E080E090E00E945406EECF3C
:10384000F7010485F6E00F9F800111240C51154DFE
:10385000F80180819181009749F00E940F2EF801B4
:103860001282138210821182148215828FEFF70167
:1038700084872396CDBFDEBFDF91CF911F910F913B
:10388000FF90EF9008952F923F924F925F926F9228
:103890007F928F929F92AF92BF92CF92DF92EF92E0
:1038A000FF920F931F93CF93DF93EC017C0128E0ED
:1038B000E20EF11C1C0160E3260E311C670190E44E
:1038C000492E92E4592E9FE0692E712C70E060E041
:1038D00088AD0E940E058FE090E00197F1F761E05E
:1038E00070E088AD0E940E0583E290E00197F1F749
:1038F00070E060E088AD0E940E058EA99FA9BB24F0
:10390000BA941FEF893248F49927FC01E753FD4F21
:10391000B490FC01EE50FD4F149160910728709116
:1039200008288091092890910A28A30192010E94F9
:10393000E12C60E472E48FE090E00E94BD2C2CE06A
:1039400030E040E050E00E94E12C90E080E0163052
:1039500028F4E0E21E9FC00111249C5F89019A01B6
:103960004B2D6B2D08960E9448206115710581052D
:10397000910501F14B015C01FFEF8F1A9F0AAF0A1D
:10398000BF0A84E0880C991CAA1CBB1C8A95D1F73D
:1039900060910728709108288091092890910A2841
:1039A000A30192010E94E12CC501B4010E94E12C07
:1039B000CA01B9010E94942B6C837D838E839F83FF
:1039C00026E933E44BE05DE30E944B2C20E030E03D
:1039D00040E05FE30E944B2C4B015C01888299829E
:1039E000AA82BB820CA91DA920E030E040EA50E485
:1039F0000E94EE2A18167CF10F5F1F4F0CAB1DAB17
:103A000060E070E0CB01F70121913191419151913A
:103A10007F010E94822AE214F304A9F720E030E03B
:103A200040E251E40E94F32A68AB79AB8AAB9BABCE
:103A3000DF91CF911F910F91FF90EF90DF90CF908A
:103A4000BF90AF909F908F907F906F905F904F90BE
:103A50003F902F9008951016110624F4015011097B
:103A60000CAB1DABF60181929192A192B1926F01C4
:103A700083E090E00197F1F7E215F30509F026CF16
:103A8000BFCF1F920F920FB60F9211242F933F9327
:103A90004F935F936F937F938F939F93AF93BF9356
:103AA000EF93FF938DEF99E20E94F902FF91EF915E
:103AB000BF91AF919F918F917F916F915F914F9146
:103AC0003F912F910F900FBE0F901F9018951F924E
:103AD0000F920FB60F9211242F938F939F93EF9312
:103AE000FF93E091092AF0910A2A818181FD1BC090
:103AF000908180910F2A8F5F8F732091102A8217F7
:103B000041F0E0910F2AF0E0E350F64D918F809361
:103B10000F2AFF91EF919F918F912F910F900FBEE0
:103B20000F901F9018958081F4CF1F920F920FB6BF
:103B30000F9211242F933F934F935F936F937F9333
:103B40008F939F93AF93BF934091622950916329C4
:103B50006091642970916529809160299091612913
:103B600020916C2930916D29420F531F611D711DE9
:103B700020916A2930916B29820F931F883E23E0A0
:103B8000920730F0885E93404F5F5F4F6F4F7F4FDB
:103B9000809360299093612940936229509363290F
:103BA00060936429709365298091662990916729B3
:103BB000A0916829B09169290196A11DB11D80933A
:103BC000662990936729A0936829B093692981E0B9
:103BD0008093B60ABF91AF919F918F917F916F9122
:103BE0005F914F913F912F910F900FBE0F901F90BB
:103BF00018951F920F920FB60F9211242F933F9397
:103C00004F935F936F937F938F939F93AF93BF93E4
:103C1000EF93FF9385E00E949006FF91EF91BF9193
:103C2000AF919F918F917F916F915F914F913F9154
:103C30002F910F900FBE0F901F9018951F920F920B
:103C40000FB60F9211242F933F934F935F936F936F
:103C50007F938F939F93AF93BF93EF93FF9384E0F2
:103C60000E949006FF91EF91BF91AF919F918F912C
:103C70007F916F915F914F913F912F910F900FBE68
:103C80000F901F9018951F920F920FB60F9211244C
:103C90002F933F934F935F936F937F938F939F9354
:103CA000AF93BF93EF93FF9383E00E949006FF9141
:103CB000EF91BF91AF919F918F917F916F915F91A4
:103CC0004F913F912F910F900FBE0F901F9018951D
:103CD0001F920F920FB60F9211242F933F934F9381
:103CE0005F936F937F938F939F93AF93BF93EF9364
:103CF000FF9382E00E949006FF91EF91BF91AF91F8
:103D00009F918F917F916F915F914F913F912F91F3
:103D10000F900FBE0F901F9018951F920F920FB625
:103D20000F9211242F933F934F935F936F937F9341
:103D30008F939F93AF93BF93EF93FF9381E00E9484
:103D40009006FF91EF91BF91AF919F918F917F91DD
:103D50006F915F914F913F912F910F900FBE0F90F8
:103D60001F9018951F920F920FB60F9211242F9348
:103D70003F934F935F936F937F938F939F93AF93F3
:103D8000BF93EF93FF9380E00E949006FF91EF9125
:103D9000BF91AF919F918F917F916F915F914F9163
:103DA0003F912F910F900FBE0F901F9018951F926B
:103DB0000F920FB60F9211242F933F934F935F935F
:103DC0006F937F938F939F93AF93BF93CF93EF9313
:103DD000FF93C091AB08C2FF0AC010925329109202
:103DE00052291092512984E00E94150714C0C6FF81
:103DF0002FC080915029813051F480915329E09156
:103E00004E29F0914F2990E0099510925029C0FF5A
:103E100014C00E942507FF91EF91CF91BF91AF9100
:103E20009F918F917F916F915F914F913F912F91D2
:103E30000F900FBE0F901F90189580E48093AB08F1
:103E400081E00E9415078091AB0885FFE4CFE1CFA8
:103E5000C7FF5CC0C3FF08C01092532910925229BB
:103E60001092512983E0C0CF8091A9088066809389
:103E7000A9088091AB0881FF2CC08091522988232A
:103E800049F08091AB0884FF05C082E08093AA08C6
:103E900081E0AACF90915229809151299817A8F4D6
:103EA000E09152298091492990914A29E80FF92FF0
:103EB000F11D80818093AD08809152298F5F80939E
:103EC000522983E08093AA08A6CF82E08093AA08B3
:103ED0008BCF9091532980914D29981790F4809120
:103EE000AD08E091532920914B2930914C29E20FE4
:103EF000F32FF11D8083809153298F5F8093532985
:103F0000E0CF86E08093AA0882E06ECF85E06CCF98
:103F10001F920F920FB60F9211242F933F938F93FE
:103F20009F93EF93FF938091A508982F9C70E1F0E9
:103F30008091A50894E082FF93E090935E2980939E
:103F4000A50881E090E08093542990935529109220
:103F50005F29FF91EF919F918F913F912F910F904A
:103F60000FBE0F901F90189586FF4EC020915B29C1
:103F700090915A298091A50884FF15C080915729F6
:103F8000882379F083E08093A40885E080935E29FC
:103F900010925F2981E090E08093542990935529F5
:103FA000D8CF81E0F0CF80915929821790F4E09129
:103FB000592980915C2990915D29E80FF92FF11D15
:103FC00080818093A808809159298F5F8093592917
:103FD000C0CF80915829891760F484E090E08093E5
:103FE0005429909355298091562981608093A70880
:103FF000B0CF80915729882329F083E08093A408CB
:1040000081E0C4CF81E0FACF87FF40C0909158296A
:1040100080915A299817D8F48091A808E0915829DE
:104020002091472930914829E20FF32FF11D808319
:10403000809158298F5F8093582990915A298091B7
:1040400058298917D8F482E08093A40882CF809100
:104050005729882389F087E08093A40882E0809321
:104060005E2910925F2981E090E08093542990931B
:10407000552910925A296DCF85E0EECF80915729AE
:10408000882311F087E0BACF85E0B8CF86E07ECFF5
:10409000CF92DF92EF92FF920F931F93E82FF92FA9
:1040A00005C0015011092109310961F19081962360
:1040B0009417B9F305C0015011092109310911F113
:1040C000908196239413F7CFC12CD12CE12CF12CA5
:1040D0000AC08FEFC81AD80AE80AF80A0C151D059D
:1040E0002E053F0579F080818623841791F36C2D8E
:1040F0007D2D8E2D9F2D1F910F91FF90EF90DF90C2
:10410000CF90089560E070E080E090E01F910F9103
:10411000FF90EF90DF90CF900895EF92FF920F9372
:104120001F93CF93DF93EC01062FE72E142FF52E6C
:1041300070E060E0802F0E9456040EABEFAA61E0B1
:1041400070E0812F0E94560418AFF9AE18AA19AA80
:104150001AAA1BAA1CAA1DAADF91CF911F910F9129
:10416000FF90EF9008953F924F925F926F927F92EF
:104170008F929F92AF92BF92CF92DF92EF92FF9277
:104180000F931F93CF93DF931092FF291092002A71
:1041900088EE93E0A0E0B0E08093012A9093022A99
:1041A000A093032AB093042A84E99DE98093FD2912
:1041B0009093FE2980E698E08093092A90930A2A3A
:1041C0008AE180930B2A8BE180930C2A80E4809310
:1041D0000D2A10920F2A1092102A1092112A109272
:1041E000122A86E28093132A1092142A1092152A1A
:1041F00040910728509108286091092870910A2859
:10420000769567955795479580E0413099E0590735
:104210009DE36907710540F0769567955795479539
:104220008F5F863091F787E094E09093D72A982F9C
:104230009095292F217030E094E0220F331F9A953A
:10424000E1F7552453948162822B8093D62A1092F1
:104250009B2A50929A2A81E28093962A82E2809346
:10426000982A80E28093972A86E18093992A109277
:10427000DA2A1092DB2A88EE93E0A0E0B0E0809387
:10428000DC2A9093DD2AA093DE2AB093DF2A8EEAFF
:104290009DE98093D82A9093D92AE4EEFAE28CE340
:1042A000DF011D928A95E9F780EC94EDA1E0B0E082
:1042B0008093202B9093212BA093222BB093232B20
:1042C0002BE6322E3092252B5092242B3EE1432EAA
:1042D0004092262B5092272B40ED842E47E0942EBF
:1042E0008092282B9092292BC0EAD1E0C0932A2BF0
:1042F000D0932B2B50E9A52EBB24B394A0922C2B4A
:10430000B0922D2B50922E2B50922F2B5092302B5F
:104310005092312B60E1C62ED12CC092322BD0921C
:10432000332BC093342BD093352B74E6E72EF12C2E
:10433000E092362BF092372B5092382B5092392B3B
:1043400050923A2B50923B2BE8EB6E2EEBE07E2EF8
:1043500060923C2B70923D2B0AE010E000933E2BC4
:1043600010933F2B1092402B1092412B1092422B16
:104370001092432B1092442B4FE050E06EE070E01F
:104380008EE79CE20E948D2043E150E062E170E004
:1043900084E49CE20E948D204DE050E06CE070E0EF
:1043A0008AE09CE20E948D2041E050E070E060E0F5
:1043B00080ED9BE20E948D2041E150E060E170E0E1
:1043C00086E99BE20E948D203092762B5092752BCD
:1043D0004092772B5092782B8092792B90927A2B67
:1043E000C0937B2BD0937C2BA0927D2BB0927E2B05
:1043F00050927F2B5092802B5092812B5092822B87
:10440000C092832BD092842BC093852BD093862B84
:10441000E092872BF092882B5092892B50928A2B16
:1044200050928B2B50928C2B60928D2B70928E2BF6
:1044300000938F2B1093902B1092912B1092922B14
:104440001092932B1092942B1092952B5092632BD9
:104450005092642B61E070E089E00E94560461E0B4
:1044600070E08AE00E94560461E070E086E00E94FD
:10447000560461E070E085E00E94560461E070E05F
:1044800088E00E94560461E070E08BE00E945604D0
:1044900089E090E08093692B90936A2B00936B2BBB
:1044A00010936C2B86E090E080936D2B90936E2B95
:1044B00085E090E080936F2B9093702B88E090E0E4
:1044C0008093712B9093722B8BE090E08093732BF1
:1044D0009093742B1092532B1092542B1092552BB7
:1044E0001092562B1092572B1092582B10924F2B44
:1044F0001092502B1092472B1092482B84ED9DE97F
:104500008093452B9093462B8FEF8093492B80937C
:104510004A2B80E590E080934B2B90934C2BDF91BE
:10452000CF911F910F91FF90EF90DF90CF90BF90B0
:10453000AF909F908F907F906F905F904F903F9043
:104540000895CF93DF93CDB7DEB76197CDBFDEBFC0
:1045500088ED90E084BF9093610080E094E2A4EF46
:10456000B0E08093072890930828A0930928B0937F
:104570000A288091020686608093020680910006D8
:10458000816080930006809102068F7C80930206F2
:104590008091A0008F788093A000809102068061B6
:1045A000809302061092E20581E08093E40583E0A7
:1045B0008093010A8FEF90E08093260A9093270A58
:1045C00080E890E08093380A9093390A80933A0A01
:1045D00090933B0A80933C0A90933D0A8BE0809332
:1045E000000A8091E50581608093E5058091E505ED
:1045F00082608093E505E0E8FAE037E02FEF90E88D
:1046000085E031832487958780837096E03C4AE07B
:10461000F407B9F780E094E08093702990937129B2
:1046200080917029909171292FEF30E0B9010E949B
:10463000CD2C60936E2970936F2980917029909191
:104640007129E8EEF3E0BF010E94CD2C60936C2944
:1046500070936D298091702990917129BF010E94FA
:10466000CD2C80936A2990936B292093BC0A3093B8
:10467000BD0A8091B50A81608093B50A84E0809379
:10468000B00A8091B00A81608093B00A789461E0AA
:1046900070E08CE10E94240461E070E08CE10E94F3
:1046A000C80461E070E08DE10E94240461E070E0E4
:1046B0008DE10E94C80461E070E083E20E9424045E
:1046C00061E070E083E20E94C80461E070E08EE186
:1046D0000E94240461E070E08EE10E94C80464E05E
:1046E00088ED9AE20E94FE0980EE9CE08093722998
:1046F0009093732940E052EC61E070E08DEF99E215
:104700000E94E00D62E070E084E00E94240468E60C
:104710007DE084E00E94DF0162E070E087E00E94BB
:10472000240460EF7CE087E00E94DF011092822980
:1047300010928329198A8091752B882309F44FC020
:10474000813009F451C0188A80E197E228892F5FEF
:10475000288B0197D9F76FE0CE0101960E942F09AF
:104760001981198A2091812B213009F089C080910B
:10477000872B9091882B8436910509F452C0883C90
:10478000910509F450C0C29711F483E0898B89899F
:104790002091832B3091842B2430310509F445C0BE
:1047A0002830310509F444C0846022303105F1F528
:1047B00089892091852B3091862B203A91E0390709
:1047C00009F48AC008F03FC02A31310509F480C0DD
:1047D00088F52D30310509F451C0806450C088ED52
:1047E0009AE20E94430AAFCF0E945B048091C00806
:1047F0008093C0088091C0088F7B8093C00880910F
:10480000C10883608093C10861E070E08091772BDC
:104810000E94560461E070E08091772B0E940E05A3
:1048200092CF82E0B3CF298BB2CF8860898BC0CF83
:104830008C60FCCF2433310509F44CC0203D310598
:1048400061F680651CC02230BDE03B0709F448C01A
:1048500058F4213493E0390709F440C02C3736402E
:1048600009F0BBCF80680BC02430BAE13B07D1F11F
:104870002231344309F0B1CF806B01C08061898B54
:10488000698980E10E94000863E1CE0141960E949F
:104890002F0989898F77898B9091822B913011F420
:1048A0008068898B698983E10E940008198A809158
:1048B000782B8130F1F58091792B90917A2B853F7F
:1048C0009105F1F088F48D379105C1F08CE017C0A7
:1048D0008062D5CF8063D3CF8066D1CF8067CFCFC2
:1048E0008069CDCF806ACBCF843FA1E09A0709F4DD
:1048F0002EC2883E934051F788E001C082E0898B48
:10490000898920917B2B30917C2B203D310509F446
:1049100033C208F01EC22A31310509F427C22433FC
:10492000310509F425C22D30310509F023C280611B
:10493000898B698981E10E9400086FE0CE010196B0
:104940000E942F0964E27EE9193611F461E37EE9E1
:104950008DEF99E20E94EE1481E090E0809374293B
:1049600090937529809380299093812982E0882EE5
:10497000912CA12CB12C94E0492E512C612C712C3E
:1049800086E99BE20E94431C6093962970939729C5
:1049900080939829909399298EE79CE20E94431C6A
:1049A00060939229709393298093942990939529E9
:1049B0008AE09CE20E94431C60938E2970938F29A9
:1049C000809390299093912920913E2C30913F2CF7
:1049D00020938C2930938D292091CA2B3091CB2B99
:1049E00020938A2930938B29E0909229F090932983
:1049F0000091942910919529209196293091972919
:104A000040919829509199290E9408028093882901
:104A1000909389296CE37EE98DEF99E20E944E160E
:104A20006091922970919329809194299091952970
:104A30000E94031466E47EE98DEF99E20E944E160F
:104A400060918E2970918F29809190299091912960
:104A50000E94031462E57EE98DEF99E20E944E16F2
:104A60006091962970919729809198299091992920
:104A70000E9403148DEF99E20E94D91460E67EE94A
:104A80008DEF99E20E944E166091882970918929D4
:104A90008DEF99E20E94AF136CE77EE98DEF99E20A
:104AA0000E94EE146AE97EE98DEF99E20E944E16AB
:104AB0004091842950918529609186297091872998
:104AC00077FF60C18DEF99E20E9486136CE77EE963
:104AD0008DEF99E20E94EE146DE47EE98DEF99E28C
:104AE0000E944E1680918229909183290E94DD14A4
:104AF0008DEF99E20E94D9148DEF99E20E94D914AA
:104B00008DEF99E20E94D91465EB7EE98DEF99E271
:104B10000E944E1680910528909106280E94DD146F
:104B2000CE0101960E9415188D858F3F61F1CE014F
:104B300001960E94D517882331F1CE0101960E947B
:104B40009512892BA1F3CE0101960E94DB12609190
:104B5000802970918129CE0101960E94AF1365E1F1
:104B60007EE9CE0101960E944E1660910528709153
:104B70000628CE0101960E94AF1367E17EE9CE01BF
:104B800001960E94EE148FEF90E00E948D038091B9
:104B900080299091812999270E948D0380918829ED
:104BA000909189298B30910509F413C30CF0F0C062
:104BB0008130910509F44DC28A30910509F4D8C2BB
:104BC000892B09F0E9C364E670E08FE590E00E946C
:104BD000201580917E2990917F2980937C29909344
:104BE0007D2980917A2990917B29809378299093CF
:104BF000792960EC7EE98DEF99E20E94EE148091B4
:104C00007C2990917D290E94DD146DEC7EE98DEF69
:104C100099E20E94EE1480917829909179290E945E
:104C2000DD1464E670E080E090E00E94540660ECE1
:104C30007EE98DEF99E20E94EE1480917E29909199
:104C40007F290E94DD146DEC7EE98DEF99E20E94D0
:104C5000EE1480917A2990917B290E94DD1469EDF0
:104C60007EE98DEF99E20E944E168091762990910F
:104C700077290E94DD1480917C2990917D292091D3
:104C80007E2930917F29AC014E51510924173507F7
:104C90000CF4FFC020917E2930917F294E96821717
:104CA00093070CF4F6C0809178299091792920918E
:104CB0007A2930917B29AC014E51510924173507CF
:104CC0000CF4E7C020917A2930917B294D96821708
:104CD00093070CF4DEC08091762990917729019694
:104CE00080937629909377298091762990917729DE
:104CF0000B9754F164E670E08FE590E00E94521546
:104D000068EB7BE080E090E00E94540610927629E8
:104D1000109277290E94001580918429909185290D
:104D2000A0918629B091872982309105A105B1050E
:104D300009F0B4C00E94BA1B409284295092852980
:104D400060928629709287290E94C40319CE84E05C
:104D5000D6CD213443E0340789F02C3796E039076B
:104D600079F0203A314031F48066E2CD8062E0CDC6
:104D70008063DECD8064DCCD8065DACD8067D8CD00
:104D80008068D6CD2AE08DEF99E20E9440139ECE36
:104D90008536910509F439C28E36910509F427C28A
:104DA0008436910509F0F8C264E670E08FE590E082
:104DB0000E942015E0907E29F0907F29E0927C29C6
:104DC000F0927D2900917A2910917B29009378290E
:104DD0001093792964E670E080E090E00E94540628
:104DE00080917E2990917F2997012E513109821758
:104DF0009307F4F080917E2990917F29AEE1EA0E2D
:104E0000F11CE816F906A4F080917A2990917B298B
:104E100098012E5131098217930754F080917A2915
:104E200090917B29035E1F4F081719070CF0C7C12B
:104E3000109276291092772980917629909177297E
:104E40000B970CF481CF64E670E08FE590E00E9450
:104E5000521568EB7BE080E090E00E9454061092CF
:104E60007629109277290E94001564E670E080E0B0
:104E700090E00E9454068091842990918529A09108
:104E80008629B09187290497A105B10509F052CF71
:104E900076C0109276291092772926CF833091051B
:104EA000A105B10579F40E944B1A85E090E0A0E0DD
:104EB000B0E08093842990938529A0938629B093AC
:104EC000872942CF84309105A105B10509F066C05C
:104ED00086E99BE20E94431C609396297093972970
:104EE00080939829909399298EE79CE20E94431C15
:104EF0006093922970939329809394299093952994
:104F00008AE09CE20E94431C60938E2970938F2953
:104F1000809390299093912920913E2C30913F2CA1
:104F200020938C2930938D292091CA2B3091CB2B43
:104F300020938A2930938B29E0909229F09093292D
:104F400000919429109195292091962930919729C3
:104F500040919829509199290E94080280938829AC
:104F6000909389298130910539F40E94F51883E0E6
:104F700090E0A0E0B0E09DCF8436910559F40E9406
:104F8000611A8092842990928529A0928629B092F4
:104F90008729DACE892B09F0D7CE85CF0597A105D1
:104FA000B10509F0D1CE86E99BE20E94431C6093D3
:104FB00096297093972980939829909399298EE741
:104FC0009CE20E94431C60939229709393298093E2
:104FD0009429909395298AE09CE20E94431C609357
:104FE0008E2970938F2980939029909391292091F5
:104FF0003E2C30913F2C20938C2930938D29209189
:10500000CA2B3091CB2B20938A2930938B29E090A7
:105010009229F0909329009194291091952920913B
:1050200096293091972940919829509199290E9469
:10503000080280938829909389298130910509F489
:1050400094CF8436910509F49ACF892B09F07CCE50
:1050500071CE64E670E08FE590E00E9420158091AB
:105060007E2990917F2980937C2990937D2980913E
:105070007A2990917B29809378299093792964E605
:1050800070E080E090E00E94540669ED7EE98DEFCB
:1050900099E20E944E1680917629909177290E947C
:1050A000DD1480917C2990917D2920917E29309179
:1050B0007F29AC014E51510924173507F4F0209196
:1050C0007E2930917F294E9682179307B4F0809104
:1050D00078299091792920917A2930917B29AC0106
:1050E0004E5151092417350744F020917A29309107
:1050F0007B294D96821793078CF510927629109292
:10510000772980917629909177290B970CF41CCE02
:1051100064E670E08FE590E00E94521568EB7BE05A
:1051200080E090E00E945406109276291092772930
:105130000E94001564E670E080E090E00E94540652
:105140008091842990918529A0918629B091872901
:105150000597A105B10509F0A6CE07CF8091762964
:105160009091772901968093762990937729C9CFDA
:105170000E94001564E670E080E090E00E94540612
:105180008091842990918529A0918629B0918729C1
:10519000AC01BD014D7F452B462B472B09F4CACDF1
:1051A00085309105A105B10509F4C4CD0397A10986
:1051B000B1090297A105B10508F0C6CD74CE809162
:1051C0007629909177290196809376299093772973
:1051D00033CE8091842990918529A0918629B09120
:1051E00087290397A105B10509F0BFCE5CCE809158
:1051F000842990918529A0918629B09187290297C9
:10520000A105B10509F0BBCE95CD64E670E08FE550
:1052100090E00E94201580917E2990917F298093B3
:105220007C2990937D2980917A2990917B29809384
:1052300078299093792964E670E080E090E00E94FC
:10524000540669ED7EE98DEF99E20E944E16809139
:105250007629909177290E94DD1480917C29909184
:105260007D2920917E2930917F29AC014E51510931
:1052700024173507FCF020917E2930917F294E9626
:1052800082179307BCF08091782990917929209119
:105290007A2930917B29AC014E51510924173507E9
:1052A0004CF020917A2930917B294D9682179307F3
:1052B0000CF068C010927629109277298091762997
:1052C000909177290B970CF43FCD1092762910928C
:1052D000772980918829909189298536910509F04F
:1052E000C0C064E670E08FE590E00E94521586E948
:1052F0009BE20E94431C60939629709397298093A8
:105300009829909399298EE79CE20E94431C609310
:1053100092297093932980939429909395298AE0F8
:105320009CE20E94431C60938E2970938F29809386
:1053300090299093912920913E2C30913F2C2093DD
:105340008C2930938D292091CA2B3091CB2B20931F
:105350008A2930938B29E0909229F090932900912B
:10536000942910919529209196293091972940915F
:105370009829509199290E94080280938829909336
:105380008929A7CF809176299091772901968093DA
:1053900076299093772992CF64E670E08FE590E0CC
:1053A0000E94521568EE73E080E090E00E9454067F
:1053B00080918829909189298F36910509F051C0F3
:1053C00064E670E08FE590E00E94521586E99BE26A
:1053D0000E94431C60939629709397298093982983
:1053E000909399298EE79CE20E94431C6093922936
:1053F0007093932980939429909395298AE09CE255
:105400000E94431C60938E2970938F29809390296A
:105410009093912920913E2C30913F2C20938C2900
:1054200030938D292091CA2B3091CB2B20938A2940
:1054300030938B29E0909229F09093290091942940
:10544000109195292091962930919729409198297A
:10545000509199290E940802809388299093892964
:10546000A7CF0E94001564E670E080E090E00E9403
:1054700054068091842990918529A0918629B09124
:10548000872982309105A105B10509F453CC8330F9
:105490009105A105B10509F406CD20918829309127
:1054A000892984309105A105B10529F42130310500
:1054B00009F0F9CC5ACD0597A105B10529F4243698
:1054C000310509F037CC5BCD2130310509F032CC04
:1054D0004CCDCF93DF93C4EEDAE2888199810097B7
:1054E00041F00E940F2E1A821B82188219821C82A0
:1054F0001D8226968BE2C032D80779F7DF91CF91D3
:1055000008955058BB27AA270E94992A0C940C2C66
:105510000E94FE2B38F00E94052C20F039F49F3FAA
:1055200019F426F40C94FB2B0EF4E095E7FB0C9495
:10553000F52BE92F0E941D2C58F3BA176207730749
:105540008407950720F079F4A6F50C943F2C0EF40F
:10555000E0950B2EBA2FA02D0B01B90190010C0183
:10556000CA01A0011124FF27591B99F0593F50F49B
:10557000503E68F11A16F040A22F232F342F4427F3
:10558000585FF3CF469537952795A795F0405395EB
:10559000C9F77EF41F16BA0B620B730B840BBAF0BB
:1055A0009150A1F0FF0FBB1F661F771F881FC2F726
:1055B0000EC0BA0F621F731F841F48F4879577953A
:1055C0006795B795F7959E3F08F0B0CF9395880FF4
:1055D00008F09927EE0F9795879508950E94D12B93
:1055E00008F481E008950E94072B0C940C2C0E9473
:1055F000052C58F00E94FE2B40F029F45F3F29F063
:105600000C94F52B51110C94402C0C94FB2B0E9404
:105610001D2C68F39923B1F3552391F3951B550B7A
:10562000BB27AA2762177307840738F09F5F5F4F75
:10563000220F331F441FAA1FA9F335D00E2E3AF0B4
:10564000E0E832D091505040E695001CCAF72BD0CC
:10565000FE2F29D0660F771F881FBB1F261737071D
:105660004807AB07B0E809F0BB0B802DBF01FF274F
:1056700093585F4F3AF09E3F510578F00C94F52B0C
:105680000C94402C5F3FE4F3983ED4F386957795D5
:105690006795B795F7959F5FC9F7880F911D969508
:1056A000879597F90895E1E0660F771F881FBB1F64
:1056B000621773078407BA0720F0621B730B840B11
:1056C000BA0BEE1F88F7E09508950E94252C88F00C
:1056D0009F5798F0B92F9927B751B0F0E1F0660FB6
:1056E000771F881F991F1AF0BA95C9F714C0B130F7
:1056F00091F00E943F2CB1E008950C943F2C672F4D
:10570000782F8827B85F39F0B93FCCF38695779525
:105710006795B395D9F73EF490958095709561950E
:105720007F4F8F4F9F4F0895E89409C097FB3EF439
:1057300090958095709561957F4F8F4F9F4F9923DE
:10574000A9F0F92F96E9BB279395F695879577955C
:105750006795B795F111F8CFFAF4BB0F11F460FF1C
:105760001BC06F5F7F4F8F4F9F4F16C0882311F074
:1057700096E911C0772321F09EE8872F762F05C088
:10578000662371F096E8862F70E060E02AF09A9523
:10579000660F771F881FDAF7880F9695879597F918
:1057A0000895990F0008550FAA0BE0E8FEEF1616B2
:1057B0001706E807F907C0F012161306E407F50705
:1057C00098F0621B730B840B950B39F40A2661F079
:1057D000232B242B252B21F408950A2609F4A1401C
:1057E000A6958FEF811D811D089597F99F6780E829
:1057F00070E060E008959FEF80EC089500240A9423
:105800001616170618060906089500240A9412169B
:105810001306140605060895092E0394000C11F4CE
:10582000882352F0BB0F40F4BF2B11F460FF04C07B
:105830006F5F7F4F8F4F9F4F089557FD9058440FD4
:10584000551F59F05F3F71F04795880F97FB991FDF
:1058500061F09F3F79F0879508951216130614069C
:10586000551FF2CF4695F1DF08C016161706180629
:10587000991FF1CF86957105610508940895E89404
:10588000BB2766277727CB0197F908950E94D12B74
:1058900008F48FEF08950E945E2C0C940C2C0E944B
:1058A000FE2B38F00E94052C20F0952311F00C946B
:1058B000F52B0C94FB2B11240C94402C0E941D2CD6
:1058C00070F3959FC1F3950F50E0551F629FF00153
:1058D000729FBB27F00DB11D639FAA27F00DB11D6C
:1058E000AA1F649F6627B00DA11D661F829F2227F5
:1058F000B00DA11D621F739FB00DA11D621F839F7C
:10590000A00D611D221F749F3327A00D611D231F51
:10591000849F600D211D822F762F6A2F11249F579F
:1059200050409AF0F1F088234AF0EE0FFF1FBB1FA2
:10593000661F771F881F91505040A9F79E3F510561
:1059400080F00C94F52B0C94402C5F3FE4F3983ED0
:10595000D4F3869577956795B795F795E7959F5F0B
:10596000C1F7FE2B880F911D9695879597F908959D
:105970000E94D12B880B990B0895DB018F939F9385
:105980000E94222DBF91AF91A29F800D911DA39FD8
:10599000900DB29F900D11240895AA1BBB1B51E1DD
:1059A00007C0AA1FBB1FA617B70710F0A61BB70B8F
:1059B000881F991F5A95A9F780959095BC01CD0134
:1059C0000895A1E21A2EAA1BBB1BFD010DC0AA1F40
:1059D000BB1FEE1FFF1FA217B307E407F50720F058
:1059E000A21BB30BE40BF50B661F771F881F991FD3
:1059F0001A9469F760957095809590959B01AC011C
:105A0000BD01CF010895052E97FB1EF400940E945E
:105A10001A2D57FD07D00E94E12C07FC03D04EF44D
:105A20000C941A2D50954095309521953F4F4F4F2E
:105A30005F4F089590958095709561957F4F8F4F3A
:105A40009F4F08950E94642DA59F900DB49F900DC7
:105A5000A49F800D911D11240895B7FF0C94222D51
:105A60000E94222D821B930B089597FD1094002E07
:105A7000083098F00850232F342F452F562F672FCA
:105A8000782F892F912DF4CF159497958795779539
:105A9000679557954795379527950A95AAF7112445
:105AA000002D08950024A7FD00942A173005400515
:105AB000500560057005800590050895EE0FFF1FE5
:105AC0000590F491E02D0994A29FB001B39FC0010D
:105AD000A39F700D811D1124911DB29F700D811D1A
:105AE0001124911D08950F931F93CF93DF9382305C
:105AF000910510F482E090E0E091BA2CF091BB2C7B
:105B000030E020E0B0E0A0E0309799F421153105B5
:105B100009F44AC0281B390B24303105D8F58A8195
:105B20009B816115710589F1FB0182839383FE01DD
:105B300011C0408151810281138148175907E0F05B
:105B40004817590799F4109761F012960C93129721
:105B500013961C933296CF01DF91CF911F910F9135
:105B600008950093BA2C1093BB2CF4CF2115310566
:105B700051F04217530738F0A901DB019A01BD012A
:105B8000DF01F801C1CFEF01F9CF8093BA2C9093D8
:105B9000BB2CCDCFFE01E20FF31F819391932250D6
:105BA000310928833983D7CF2091B82C3091B92C73
:105BB000232B41F420910D2830910E282093B82CEE
:105BC0003093B92C20910B2830910C2821153105E8
:105BD00041F42DB73EB740910F2850911028241B57
:105BE000350BE091B82CF091B92CE217F307A0F433
:105BF0002E1B3F0B2817390778F0AC014E5F5F4F23
:105C00002417350748F04E0F5F1F4093B82C509370
:105C1000B92C819391939FCFF0E0E0E09CCFCF939C
:105C2000DF930097E9F0FC01329712821382A09172
:105C3000BA2CB091BB2CED0130E020E01097A1F41C
:105C400020813181820F931F2091B82C3091B92C83
:105C50002817390709F061C0E093B82CF093B92CEC
:105C6000DF91CF910895EA01CE17DF07E8F54A8169
:105C70005B819E0141155105B1F7E901EA83FB8380
:105C800049915991C40FD51FEC17FD0761F480812C
:105C900091810296840F951FE901888399838281FF
:105CA00093818A839B83F0E0E0E012968D919C9132
:105CB00013970097B9F52D913C911197CD0102965C
:105CC000820F931F2091B82C3091B92C28173907D7
:105CD00039F6309751F51092BA2C1092BB2CA09344
